:100000000C9463000C948B000C948B000C948B006C
:100010000C948B000C948B000C948B000C943D047E
:100020000C948B000C948B000C948B000C948B0024
:100030000C948B000C948B000C948B000C948B0014
:100040000C94F1040C948B000C94BF040C94990450
:100050000C948B000C948B000C948B000C948B00F4
:100060000C948B000C948B000000000024002700EF
:100070002A000000000023002600290000000008DC
:10008000000201000003040700000000000000005F
:10009000010204081020408001020408102001021F
:1000A0000408102000000000250028002B00040494
:1000B0000404040404040202020202020303030310
:1000C000030302003B0511241FBECFEFD8E0DEBFC3
:1000D000CDBF11E0A0E0B1E0E0E4FFE002C0059098
:1000E0000D92AE32B107D9F721E0AEE2B1E001C026
:1000F0001D92A83FB207E1F710E0C3E6D0E004C0CC
:100100002197FE010E949307C236D107C9F70E94CA
:1001100079050C949E070C940000FC01538D448DCE
:10012000252F30E0842F90E0821B930B541710F0A2
:10013000CF96089501970895FC01918D828D9817AF
:1001400061F0828DDF01A80FB11D5D968C91928DBB
:100150009F5F9F73928F90E008958FEF9FEF0895B8
:10016000FC01918D828D981731F0828DE80FF11D81
:10017000858D90E008958FEF9FEF0895FC01918D9C
:10018000228D892F90E0805C9F4F821B91098F7395
:1001900099270895FC01848DDF01A80FB11DA35A92
:1001A000BF4F2C91848D90E001968F739927848F97
:1001B000A689B7892C93A089B1898C9180648C938E
:1001C000938D848D981306C00288F389E02D808179
:1001D0008F7D80830895EF92FF920F931F93CF93AB
:1001E000DF93EC0181E0888F9B8D8C8D981305C087
:1001F000E889F989808185FD24C0F62E0B8D10E0F9
:100200000F5F1F4F0F731127E02E8C8DE8120CC06B
:100210000FB607FCFACFE889F989808185FFF5CF11
:10022000CE010E94CA00F1CF8B8DFE01E80FF11DB7
:10023000E35AFF4FF0820B8FEA89FB89808180624D
:1002400007C0EE89FF896083E889F989808180642D
:10025000808381E090E0DF91CF911F910F91FF901B
:10026000EF900895CF93DF93EC01888D8823C9F038
:10027000EA89FB89808185FD05C0A889B9898C91AF
:1002800086FD0FC00FB607FCF5CF808185FFF2CF4A
:10029000A889B9898C9185FFEDCFCE010E94CA0053
:1002A000E7CFDF91CF91089582E591E00E94BE00F3
:1002B00021E0892B09F420E0822F089580E090E06E
:1002C000892B29F00E94540181110C94000008959B
:1002D000CF92DF92EF92FF920F931F93CF93DF9312
:1002E0006C017A018B01C0E0D0E0CE15DF0589F00A
:1002F000D8016D918D01D601ED91FC910190F081B5
:10030000E02DC6010995892B11F47E0102C02196CA
:10031000ECCFC701DF91CF911F910F91FF90EF902C
:10032000DF90CF900895089580E090E008958330A5
:1003300081F028F4813099F08230A1F0089587305F
:10034000A9F08830B9F08430D1F4809180008F7D9D
:1003500003C0809180008F7780938000089584B5DA
:100360008F7702C084B58F7D84BD08958091B000E1
:100370008F7703C08091B0008F7D8093B000089587
:10038000CF93DF93282F30E0F901E458FF4F849199
:10039000F901E057FF4FD491F901E255FF4FC491A5
:1003A000CC2391F081110E949701EC2FF0E0EE0F29
:1003B000FF1FEE58FF4FA591B491EC91ED2381E022
:1003C00090E021F480E002C080E090E0DF91CF91E6
:1003D00008951F93CF93DF93282F30E0F901E4585D
:1003E000FF4F8491F901E057FF4FD491F901E25595
:1003F000FF4FC491CC23C9F0162F81110E949701A1
:10040000EC2FF0E0EE0FFF1FEC55FF4FA591B491DC
:100410008FB7F894111105C09C91ED2FE095E92359
:1004200002C0EC91ED2BEC938FBFDF91CF911F9128
:100430000895CF93DF93CFEED1E060E08D810E94ED
:10044000E90160E08E810E94E90161E08D810E94F6
:10045000E90161E08E81DF91CF910C94E901CF93A6
:10046000DF93CFEED1E061E08D810E94E90161E090
:100470008E810E94E90160E08E810E94E90160E0C6
:100480008D81DF91CF910C94E90190910001981337
:1004900024C0E2ECF0E0E4919FEF90930001E130A2
:1004A000B9F098F0E230C9F4909170009D7F90937C
:1004B000700091E09093B0009091B100987F9460AB
:1004C0009093B1001092B30008C010926E0005C066
:1004D00090916F009D7F90936F0060E00C94E90114
:1004E000CF93DF9390E0FC01E057FF4F2491FC0194
:1004F000E255FF4F8491882361F190E0880F991FA6
:10050000FC01E859FF4FC591D491FC01EC55FF4F18
:10051000A591B491611109C09FB7F8948881209585
:1005200082238883EC912E230BC0623061F49FB745
:10053000F8943881822F809583238883EC912E2B29
:100540002C939FBF06C08FB7F894E8812E2B288389
:100550008FBFDF91CF910895EF92FF921F93CF93BA
:10056000DF93182FD8E087E0E82EF12C60E080912F
:10057000F4010E94E90110FF02C061E001C060E0E7
:100580008091F5010E94E901C7010197F1F71595E6
:1005900061E08091F4010E94E901C7010197F1F740
:1005A000D15021F760E08091F4010E94E90161E0FF
:1005B0008091F5010E94E90161E08091F4010E94BF
:1005C000E90160E08091F5010E9470028091F501DF
:1005D0000E94C001892B79F0CF5FC83C91F761E0A0
:1005E0008091F5010E94700260E08091F5010E9407
:1005F000E901C0E0E6CF61E08091F501DF91CF91A4
:100600001F91FF90EF900C947002FF920F931F9335
:10061000CF93DF9300D000D0CDB7DEB79C01295136
:100620003C4F273F3A4208F097C0F090F70197FF00
:1006300016C091958195910964E670E00E946B0760
:10064000FB01362F6AE070E00E946B07962FFF20B7
:1006500011F1EF2B01F5672BE9F491E11BC068EE76
:1006600073E00E946B078B01262F64E670E00E9406
:100670006B07FB01362F6AE070E00E946B07962F34
:10068000FF2069F0012B59F4EF2B41F4672B29F47B
:1006900091E103C031E120E102C031E121E141E01B
:1006A0004093F70129833A839B838C838091F201E5
:1006B000811102C090E001C090E88E010F5F1F4FD2
:1006C000F80184E0F82EF00EA081AF3711F410820B
:1006D00008C00A2E000CBB0BAD5FBE4F8C91890F7A
:1006E00080833196FE12F0CF8091F301813069F45E
:1006F0008091F601833049F0F801E80FF11D808107
:100700008058808383E08093F6010E942F0280E46A
:100710000E94AC020E9419020E942F028091F001F7
:100720000E94AC02F80181918F010E94AC02F0128C
:10073000F9CF0E9419020E942F028091F1010E94BC
:10074000AC020F900F900F900F90DF91CF911F91FF
:100750000F91FF900C9419020F900F900F900F9033
:10076000DF91CF911F910F91FF900895CF93DF9369
:10077000D82F8091F201811102C0C0E001C0C0E811
:100780000E942F0284E40E94AC020E9419020E947F
:100790002F028D2F806C0E94AC028C2F0E94AC0225
:1007A0000E9419020E942F028091F1010E94AC0266
:1007B000DF91CF910C9419023FB7F89480912F01EB
:1007C00090913001A0913101B091320126B5A89BE2
:1007D00005C02F3F19F00196A11DB11D3FBFBA2FD3
:1007E000A92F982F8827820F911DA11DB11DBC0133
:1007F000CD0142E0660F771F881F991F4A95D1F7F8
:1008000008958F929F92AF92BF92CF92DF92EF9214
:10081000FF926B017C010E94DC034B015C01C1145F
:10082000D104E104F104F1F00E94DC03DC01CB010E
:1008300088199909AA09BB09883E9340A105B10509
:1008400070F321E0C21AD108E108F10888EE880EA1
:1008500083E0981EA11CB11CC114D104E104F10471
:1008600019F7DDCFFF90EF90DF90CF90BF90AF9062
:100870009F908F9008950E9499071F920F920FB634
:100880000F9211242F933F934F935F936F937F9316
:100890008F939F93AF93BF93EF93FF93809140010A
:1008A00090914101A0914201B0914301892B8A2B83
:1008B0008B2B51F180913701E0913801F091390192
:1008C0009081892780838091400190914101A0917E
:1008D0004201B0914301181619061A061B06C4F40A
:1008E0008091400190914101A0914201B09143015A
:1008F0000197A109B1098093400190934101A09310
:100900004201B093430104C0809100010E9445025E
:10091000FF91EF91BF91AF919F918F917F916F91D7
:100920005F914F913F912F910F900FBE0F901F90AD
:1009300018951F920F920FB60F9211242F933F9389
:100940004F935F936F937F938F939F93AF93BF93D7
:10095000EF93FF9382E591E00E94CA00FF91EF912F
:10096000BF91AF919F918F917F916F915F914F91C7
:100970003F912F910F900FBE0F901F9018951F92CF
:100980000F920FB60F9211242F938F939F93EF9393
:10099000FF93E0916201F09163018081E091680131
:1009A000F091690182FD12C0908180916B018F5F8F
:1009B0008F7320916C01821751F0E0916B01F0E090
:1009C000EE5AFE4F958F80936B0101C08081FF919D
:1009D000EF919F918F912F910F900FBE0F901F90CD
:1009E00018951F920F920FB60F9211242F933F93D9
:1009F0008F939F93AF93BF93809133019091340174
:100A0000A0913501B091360130912E0123E0230FE2
:100A10002D3720F40196A11DB11D05C026E8230F36
:100A20000296A11DB11D20932E0180933301909356
:100A30003401A0933501B093360180912F0190913C
:100A40003001A0913101B09132010196A11DB11D7B
:100A500080932F0190933001A0933101B093320124
:100A6000BF91AF919F918F913F912F910F900FBEAA
:100A70000F901F901895CF93DF93E2E5F1E013827A
:100A8000128288EE93E0A0E0B0E084839583A68391
:100A9000B78380E291E09183808385EC90E0958735
:100AA000848784EC90E09787868780EC90E0918B38
:100AB000808B81EC90E0938B828B82EC90E0958B25
:100AC000848B86EC90E0978B868B118E128E138E22
:100AD000148ECFEED1E089E08D838AE08E8361E0D1
:100AE00089E00E94700261E08E81DF91CF910C94C9
:100AF0007002789484B5826084BD84B5816084BDC1
:100B000085B5826085BD85B5816085BD80916E00AB
:100B1000816080936E0010928100809181008260DC
:100B20008093810080918100816080938100809119
:100B300080008160809380008091B1008460809308
:100B4000B1008091B00081608093B00080917A0004
:100B5000846080937A0080917A00826080937A002A
:100B600080917A00816080937A0080917A00806819
:100B700080937A001092C1001092F30181E080937B
:100B8000F70183E08093F60180E00E94B60381E0E4
:100B90000E94B60382E00E94B60383E00E94B6037F
:100BA00080E48093EF0180EC8093F0018AE88093E9
:100BB000F10162E082E00E94700262E083E00E9444
:100BC000700261E085E00E94700261E085E00E94B1
:100BD00070028091F301811102C01092F2018091A4
:100BE0005001909151010E940503AA24A394B12CB5
:100BF000D9EF44244A94542C32015FEC852E57E0FF
:100C0000952E62ECC62E60E0D62E03EB10E075E95F
:100C1000E72E70E0F72E82E00E94C001892BB9F424
:100C200080915001909151010596909351018093CC
:100C300050012091F301211102C01092F2010E9493
:100C400005036CE271E080E090E00E94010483E023
:100C50000E94C001892B89F48091010190910201C9
:100C600091958195910990930201809301016CE225
:100C700071E080E090E00E94010480910101909178
:100C80000201019609F024C180910001853019F418
:100C9000F601C49171C08F3F09F0BFC085E0809319
:100CA0000001F601C491CF3F09F4B7C0C13001F192
:100CB000C23009F43FC0C1115FC014BC15BC84B57B
:100CC000826084BD85B5816085BDF8018491E82F7F
:100CD000F0E0EE0FFF1FEC55FF4F8591949190933C
:100CE0003F0180933E01F701849180933D0146C00E
:100CF0001092800010928100809181008860809322
:100D0000810080918100816080938100F80184914D
:100D1000E82FF0E0EE0FFF1FEC55FF4F8591949107
:100D200090933C0180933B01F701849180933A01B9
:100D3000C1E024C01092B0001092B1008091B000C8
:100D400082608093B0008091B10081608093B10097
:100D5000F8018491E82FF0E0EE0FFF1FEC55FF4FF4
:100D6000859194919093390180933801F701849192
:100D700080933701C2E002C0C7FD4FC061E085E04B
:100D80000E947002CC2351F0C230D9F48091B1009E
:100D9000887F82608093B10089EF30C085B5887FFD
:100DA000826085BDD7BD4092480150924901609252
:100DB0004A0170924B0180916E00826080936E00B8
:100DC0002CC0C130C1F480918100887F8160809304
:100DD0008100909289008092880040924401509254
:100DE0004501609246017092470180916F008260D8
:100DF00080936F0012C0C23081F48FEC8093B300F7
:100E00004092400150924101609242017092430130
:100E10008091700082608093700060E070E0CB0190
:100E20000E9401042FB7F89480913301909134010E
:100E3000A0913501B09136012FBF40914C015091E6
:100E40004D0160914E0170914F01841B950BA60BD3
:100E5000B70B883E9340A105B105E0F02FB7F89499
:100E60008091330190913401A0913501B091360108
:100E70002FBF80934C0190934D01A0934E01B093EE
:100E80004F01809150019091510101979093510130
:100E900080935001809150019091510118161906CC
:100EA0005CF01092510110925001B0920201A09298
:100EB000010185E00E9445028091F301811102C089
:100EC0001092F20180915001909151010E9405030E
:100ED0000E945E01A0CE97FB072E16F4009407D067
:100EE00077FD09D00E947F0707FC05D03EF490955E
:100EF00081959F4F0895709561957F4F0895AA1B26
:100F0000BB1B51E107C0AA1FBB1FA617B70710F0F4
:100F1000A61BB70B881F991F5A95A9F78095909526
:100F2000BC01CD010895EE0FFF1F0590F491E02D57
:100F3000099481E090E0F8940C949E07F894FFCF18
:100F4000FF01003F065B4F666D7D077F6F777C3941
:100F50005E7971400063507454786A1D000000008F
:0E0F6000EB0068018D003201BE009C00B00065
:107E0000112484B714BE81FFF0D085E080938100F7
:107E100082E08093C00088E18093C10086E0809377
:107E2000C20080E18093C4008EE0C9D0259A86E02C
:107E300020E33CEF91E0309385002093840096BBD3
:107E4000B09BFECF1D9AA8958150A9F7CC24DD24C4
:107E500088248394B5E0AB2EA1E19A2EF3E0BF2EE7
:107E6000A2D0813461F49FD0082FAFD0023811F036
:107E7000013811F484E001C083E08DD089C08234E0
:107E800011F484E103C0853419F485E0A6D080C0E4
:107E9000853579F488D0E82EFF2485D0082F10E0AE
:107EA000102F00270E291F29000F111F8ED06801E7
:107EB0006FC0863521F484E090D080E0DECF843638
:107EC00009F040C070D06FD0082F6DD080E0C81688
:107ED00080E7D80618F4F601B7BEE895C0E0D1E017
:107EE00062D089930C17E1F7F0E0CF16F0E7DF06D8
:107EF00018F0F601B7BEE89568D007B600FCFDCFD4
:107F0000A601A0E0B1E02C9130E011968C91119780
:107F100090E0982F8827822B932B1296FA010C0160
:107F200087BEE89511244E5F5F4FF1E0A038BF0790
:107F300051F7F601A7BEE89507B600FCFDCF97BE46
:107F4000E89526C08437B1F42ED02DD0F82E2BD052
:107F50003CD0F601EF2C8F010F5F1F4F84911BD097
:107F6000EA94F801C1F70894C11CD11CFA94CF0C13
:107F7000D11C0EC0853739F428D08EE10CD085E9AC
:107F80000AD08FE07ACF813511F488E018D01DD067
:107F900080E101D065CF982F8091C00085FFFCCF94
:107FA0009093C60008958091C00087FFFCCF809118
:107FB000C00084FD01C0A8958091C6000895E0E648
:107FC000F0E098E1908380830895EDDF803219F02E
:107FD00088E0F5DFFFCF84E1DECF1F93182FE3DFCA
:107FE0001150E9F7F2DF1F91089580E0E8DFEE27F6
:047FF000FF270994CA
:027FFE00040479
:0400000300007E007B
:00000001FF
